{
  "contractName": "Payroll",
  "abi": [
    {
      "constant": false,
      "inputs": [],
      "name": "renounceOwnership",
      "outputs": [],
      "payable": false,
      "stateMutability": "nonpayable",
      "type": "function"
    },
    {
      "constant": true,
      "inputs": [],
      "name": "owner",
      "outputs": [
        {
          "name": "",
          "type": "address"
        }
      ],
      "payable": false,
      "stateMutability": "view",
      "type": "function"
    },
    {
      "constant": true,
      "inputs": [
        {
          "name": "",
          "type": "address"
        }
      ],
      "name": "employees",
      "outputs": [
        {
          "name": "id",
          "type": "address"
        },
        {
          "name": "salary",
          "type": "uint256"
        },
        {
          "name": "lastPayDate",
          "type": "uint256"
        }
      ],
      "payable": false,
      "stateMutability": "view",
      "type": "function"
    },
    {
      "constant": false,
      "inputs": [
        {
          "name": "_newOwner",
          "type": "address"
        }
      ],
      "name": "transferOwnership",
      "outputs": [],
      "payable": false,
      "stateMutability": "nonpayable",
      "type": "function"
    },
    {
      "inputs": [],
      "payable": true,
      "stateMutability": "payable",
      "type": "constructor"
    },
    {
      "anonymous": false,
      "inputs": [
        {
          "indexed": true,
          "name": "previousOwner",
          "type": "address"
        }
      ],
      "name": "OwnershipRenounced",
      "type": "event"
    },
    {
      "anonymous": false,
      "inputs": [
        {
          "indexed": true,
          "name": "previousOwner",
          "type": "address"
        },
        {
          "indexed": true,
          "name": "newOwner",
          "type": "address"
        }
      ],
      "name": "OwnershipTransferred",
      "type": "event"
    },
    {
      "constant": false,
      "inputs": [
        {
          "name": "employeeAddress",
          "type": "address"
        },
        {
          "name": "salary",
          "type": "int256"
        }
      ],
      "name": "addEmployee",
      "outputs": [],
      "payable": false,
      "stateMutability": "nonpayable",
      "type": "function"
    },
    {
      "constant": false,
      "inputs": [
        {
          "name": "employeeAddress",
          "type": "address"
        }
      ],
      "name": "removeEmployee",
      "outputs": [],
      "payable": false,
      "stateMutability": "nonpayable",
      "type": "function"
    },
    {
      "constant": false,
      "inputs": [
        {
          "name": "employeeAddress",
          "type": "address"
        },
        {
          "name": "salary",
          "type": "uint256"
        }
      ],
      "name": "updateEmployee",
      "outputs": [],
      "payable": false,
      "stateMutability": "nonpayable",
      "type": "function"
    },
    {
      "constant": false,
      "inputs": [
        {
          "name": "oldPayAddr",
          "type": "address"
        },
        {
          "name": "newPayAddr",
          "type": "address"
        }
      ],
      "name": "changePaymentAddress",
      "outputs": [],
      "payable": false,
      "stateMutability": "nonpayable",
      "type": "function"
    },
    {
      "constant": false,
      "inputs": [],
      "name": "addFund",
      "outputs": [
        {
          "name": "",
          "type": "uint256"
        }
      ],
      "payable": true,
      "stateMutability": "payable",
      "type": "function"
    },
    {
      "constant": true,
      "inputs": [],
      "name": "calculateRunway",
      "outputs": [
        {
          "name": "",
          "type": "uint256"
        }
      ],
      "payable": false,
      "stateMutability": "view",
      "type": "function"
    },
    {
      "constant": true,
      "inputs": [],
      "name": "hasEnoughFund",
      "outputs": [
        {
          "name": "",
          "type": "bool"
        }
      ],
      "payable": false,
      "stateMutability": "view",
      "type": "function"
    },
    {
      "constant": false,
      "inputs": [],
      "name": "getPaid",
      "outputs": [],
      "payable": false,
      "stateMutability": "nonpayable",
      "type": "function"
    }
  ],
  "bytecode": "0x60806040526000600255336000806101000a81548173ffffffffffffffffffffffffffffffffffffffff021916908373ffffffffffffffffffffffffffffffffffffffff16021790555061118b806100586000396000f3006080604052600436106100ba576000357c0100000000000000000000000000000000000000000000000000000000900463ffffffff16806323fed09e146100bf5780634ec19512146100ee5780635e91d8ec14610119578063715018a6146101665780638da5cb5b1461017d578063a2f09dfa146101d4578063bc456c42146101f2578063cd17a51f14610255578063cf41d6f8146102a2578063d0678947146102b9578063d108177a1461034a578063f2fde38b1461038d575b600080fd5b3480156100cb57600080fd5b506100d46103d0565b604051808215151515815260200191505060405180910390f35b3480156100fa57600080fd5b506101036103e1565b6040518082815260200191505060405180910390f35b34801561012557600080fd5b50610164600480360381019080803573ffffffffffffffffffffffffffffffffffffffff1690602001909291908035906020019092919050505061041a565b005b34801561017257600080fd5b5061017b6105c8565b005b34801561018957600080fd5b506101926106ca565b604051808273ffffffffffffffffffffffffffffffffffffffff1673ffffffffffffffffffffffffffffffffffffffff16815260200191505060405180910390f35b6101dc6106ef565b6040518082815260200191505060405180910390f35b3480156101fe57600080fd5b50610253600480360381019080803573ffffffffffffffffffffffffffffffffffffffff169060200190929190803573ffffffffffffffffffffffffffffffffffffffff16906020019092919050505061070e565b005b34801561026157600080fd5b506102a0600480360381019080803573ffffffffffffffffffffffffffffffffffffffff16906020019092919080359060200190929190505050610988565b005b3480156102ae57600080fd5b506102b7610b6c565b005b3480156102c557600080fd5b506102fa600480360381019080803573ffffffffffffffffffffffffffffffffffffffff169060200190929190505050610cb8565b604051808473ffffffffffffffffffffffffffffffffffffffff1673ffffffffffffffffffffffffffffffffffffffff168152602001838152602001828152602001935050505060405180910390f35b34801561035657600080fd5b5061038b600480360381019080803573ffffffffffffffffffffffffffffffffffffffff169060200190929190505050610d02565b005b34801561039957600080fd5b506103ce600480360381019080803573ffffffffffffffffffffffffffffffffffffffff169060200190929190505050610ef9565b005b6000806103db6103e1565b11905090565b6000806002541115156103f057fe5b6002543073ffffffffffffffffffffffffffffffffffffffff163181151561041457fe5b04905090565b60008060009054906101000a900473ffffffffffffffffffffffffffffffffffffffff1673ffffffffffffffffffffffffffffffffffffffff163373ffffffffffffffffffffffffffffffffffffffff1614151561047757600080fd5b600160008473ffffffffffffffffffffffffffffffffffffffff1673ffffffffffffffffffffffffffffffffffffffff168152602001908152602001600020905060008160000160009054906101000a900473ffffffffffffffffffffffffffffffffffffffff1673ffffffffffffffffffffffffffffffffffffffff16141515156104ff57fe5b6105226105126002548360010154610f60565b670de0b6b3a76400008402610f79565b6002819055506105a781606060405190810160405290816000820160009054906101000a900473ffffffffffffffffffffffffffffffffffffffff1673ffffffffffffffffffffffffffffffffffffffff1673ffffffffffffffffffffffffffffffffffffffff16815260200160018201548152602001600282015481525050610f95565b670de0b6b3a764000082028160010181905550428160020181905550505050565b6000809054906101000a900473ffffffffffffffffffffffffffffffffffffffff1673ffffffffffffffffffffffffffffffffffffffff163373ffffffffffffffffffffffffffffffffffffffff1614151561062357600080fd5b6000809054906101000a900473ffffffffffffffffffffffffffffffffffffffff1673ffffffffffffffffffffffffffffffffffffffff167ff8df31144d9c2f0f6b59d69b8b98abd5459d07f2742c4df920b25aae33c6482060405160405180910390a260008060006101000a81548173ffffffffffffffffffffffffffffffffffffffff021916908373ffffffffffffffffffffffffffffffffffffffff160217905550565b6000809054906101000a900473ffffffffffffffffffffffffffffffffffffffff1681565b60003073ffffffffffffffffffffffffffffffffffffffff1631905090565b60008060009054906101000a900473ffffffffffffffffffffffffffffffffffffffff1673ffffffffffffffffffffffffffffffffffffffff163373ffffffffffffffffffffffffffffffffffffffff1614151561076b57600080fd5b600160008473ffffffffffffffffffffffffffffffffffffffff1673ffffffffffffffffffffffffffffffffffffffff168152602001908152602001600020905060008160000160009054906101000a900473ffffffffffffffffffffffffffffffffffffffff1673ffffffffffffffffffffffffffffffffffffffff16141515156107f357fe5b81600160008473ffffffffffffffffffffffffffffffffffffffff1673ffffffffffffffffffffffffffffffffffffffff16815260200190815260200160002060000160006101000a81548173ffffffffffffffffffffffffffffffffffffffff021916908373ffffffffffffffffffffffffffffffffffffffff1602179055508060010154600160008473ffffffffffffffffffffffffffffffffffffffff1673ffffffffffffffffffffffffffffffffffffffff168152602001908152602001600020600101819055508060020154600160008473ffffffffffffffffffffffffffffffffffffffff1673ffffffffffffffffffffffffffffffffffffffff16815260200190815260200160002060020181905550600160008473ffffffffffffffffffffffffffffffffffffffff1673ffffffffffffffffffffffffffffffffffffffff168152602001908152602001600020600080820160006101000a81549073ffffffffffffffffffffffffffffffffffffffff0219169055600182016000905560028201600090555050505050565b6000809054906101000a900473ffffffffffffffffffffffffffffffffffffffff1673ffffffffffffffffffffffffffffffffffffffff163373ffffffffffffffffffffffffffffffffffffffff161415156109e357600080fd5b6000811315156109ef57fe5b6000600160008473ffffffffffffffffffffffffffffffffffffffff1673ffffffffffffffffffffffffffffffffffffffff16815260200190815260200160002060000160009054906101000a900473ffffffffffffffffffffffffffffffffffffffff1673ffffffffffffffffffffffffffffffffffffffff16141515610a7357fe5b6060604051908101604052808373ffffffffffffffffffffffffffffffffffffffff168152602001670de0b6b3a76400008302815260200142815250600160008473ffffffffffffffffffffffffffffffffffffffff1673ffffffffffffffffffffffffffffffffffffffff16815260200190815260200160002060008201518160000160006101000a81548173ffffffffffffffffffffffffffffffffffffffff021916908373ffffffffffffffffffffffffffffffffffffffff1602179055506020820151816001015560408201518160020155905050610b62600254670de0b6b3a76400008302610f79565b6002819055505050565b600080600160003373ffffffffffffffffffffffffffffffffffffffff1673ffffffffffffffffffffffffffffffffffffffff168152602001908152602001600020915060008260000160009054906101000a900473ffffffffffffffffffffffffffffffffffffffff1673ffffffffffffffffffffffffffffffffffffffff1614151515610bf757fe5b610c0882600201546228de80610f79565b90508042111515610c1557fe5b80826002018190555081600101543073ffffffffffffffffffffffffffffffffffffffff163110151515610c4557fe5b8160000160009054906101000a900473ffffffffffffffffffffffffffffffffffffffff1673ffffffffffffffffffffffffffffffffffffffff166108fc83600101549081150290604051600060405180830381858888f19350505050158015610cb3573d6000803e3d6000fd5b505050565b60016020528060005260406000206000915090508060000160009054906101000a900473ffffffffffffffffffffffffffffffffffffffff16908060010154908060020154905083565b60008060009054906101000a900473ffffffffffffffffffffffffffffffffffffffff1673ffffffffffffffffffffffffffffffffffffffff163373ffffffffffffffffffffffffffffffffffffffff16141515610d5f57600080fd5b600160008373ffffffffffffffffffffffffffffffffffffffff1673ffffffffffffffffffffffffffffffffffffffff168152602001908152602001600020905060008160000160009054906101000a900473ffffffffffffffffffffffffffffffffffffffff1673ffffffffffffffffffffffffffffffffffffffff1614151515610de757fe5b610e6681606060405190810160405290816000820160009054906101000a900473ffffffffffffffffffffffffffffffffffffffff1673ffffffffffffffffffffffffffffffffffffffff1673ffffffffffffffffffffffffffffffffffffffff16815260200160018201548152602001600282015481525050610f95565b610e766002548260010154610f60565b600281905550600160008373ffffffffffffffffffffffffffffffffffffffff1673ffffffffffffffffffffffffffffffffffffffff168152602001908152602001600020600080820160006101000a81549073ffffffffffffffffffffffffffffffffffffffff02191690556001820160009055600282016000905550505050565b6000809054906101000a900473ffffffffffffffffffffffffffffffffffffffff1673ffffffffffffffffffffffffffffffffffffffff163373ffffffffffffffffffffffffffffffffffffffff16141515610f5457600080fd5b610f5d8161102d565b50565b6000828211151515610f6e57fe5b818303905092915050565b60008183019050828110151515610f8c57fe5b80905092915050565b60006228de80610faf836020015184604001514203611127565b811515610fb857fe5b049050803073ffffffffffffffffffffffffffffffffffffffff163110151515610fde57fe5b816000015173ffffffffffffffffffffffffffffffffffffffff166108fc829081150290604051600060405180830381858888f19350505050158015611028573d6000803e3d6000fd5b505050565b600073ffffffffffffffffffffffffffffffffffffffff168173ffffffffffffffffffffffffffffffffffffffff161415151561106957600080fd5b8073ffffffffffffffffffffffffffffffffffffffff166000809054906101000a900473ffffffffffffffffffffffffffffffffffffffff1673ffffffffffffffffffffffffffffffffffffffff167f8be0079c531659141344cd1fd0a4f28419497f9722a3daafe3b4186f6b6457e060405160405180910390a3806000806101000a81548173ffffffffffffffffffffffffffffffffffffffff021916908373ffffffffffffffffffffffffffffffffffffffff16021790555050565b60008083141561113a5760009050611159565b818302905081838281151561114b57fe5b0414151561115557fe5b8090505b929150505600a165627a7a72305820276e5f7e6fd9073ca2207d1df647059192411aeb5f97a591f8586f47c3714bd60029",
  "source": "pragma solidity ^0.4.14;\r\n\r\nimport './Ownable.sol';\r\nimport './SafeMath.sol';\r\n\r\ncontract Payroll is Ownable {\r\n\r\n    struct Employee {\r\n        address id;\r\n        uint salary;\r\n        uint lastPayDate;\r\n    }\r\n    mapping(address => Employee) public employees;\r\n\r\n    uint constant payDuration = 31 days;\r\n    uint totalSalary = 0;\r\n\r\n    constructor() payable public {}\r\n\r\n\tfunction _payOffSalary(Employee employee) private {\r\n\t    uint allSalary = SafeMath.mul(employee.salary, now - employee.lastPayDate) / payDuration;\r\n\t    assert(address(this).balance >= allSalary);\r\n\r\n        employee.id.transfer(allSalary);\r\n\t}\r\n\r\n    function addEmployee(address employeeAddress, int salary) onlyOwner public {\r\n        assert(salary > 0);\r\n        assert(employees[employeeAddress].id == 0x0);\r\n        \r\n        employees[employeeAddress] = Employee(employeeAddress, (uint)(salary) * 1 ether, now);\r\n        totalSalary = SafeMath.add(totalSalary, (uint)(salary) * 1 ether);\r\n    }\r\n\r\n    function removeEmployee(address employeeAddress) onlyOwner public {\r\n        var employee = employees[employeeAddress];\r\n\t    assert(employee.id != 0x0);\r\n\t    \r\n\t    _payOffSalary(employee);\r\n\t    \r\n\t    totalSalary = SafeMath.sub(totalSalary, employee.salary);\r\n\t    delete employees[employeeAddress];\r\n    }\r\n\r\n    function updateEmployee(address employeeAddress, uint salary) onlyOwner public {\r\n        var employee = employees[employeeAddress];\r\n\t    assert(employee.id != 0x0);\r\n\t    \r\n\t    totalSalary = SafeMath.add( SafeMath.sub(totalSalary, employee.salary), salary * 1 ether );\r\n\t    _payOffSalary(employee);\r\n\t    \r\n\t    employee.salary = salary * 1 ether;\r\n\t    employee.lastPayDate = now;\r\n    }\r\n    \r\n    function changePaymentAddress(address oldPayAddr, address newPayAddr) onlyOwner public {\r\n        var employee = employees[oldPayAddr];\r\n\t    assert(employee.id != 0x0);\r\n\t    \r\n        employees[newPayAddr].id = newPayAddr;\r\n        employees[newPayAddr].salary = employee.salary;\r\n        employees[newPayAddr].lastPayDate = employee.lastPayDate;\r\n\t    \r\n\t    delete employees[oldPayAddr];\r\n    }\r\n\r\n    function addFund() payable public returns (uint) {\r\n        return address(this).balance;\r\n    }\r\n\r\n    function calculateRunway() public view returns (uint) {\r\n        // TODO: your code here\r\n        assert(totalSalary > 0);\r\n    \r\n    \treturn address(this).balance / totalSalary;\r\n    }\r\n\r\n    function hasEnoughFund() public view returns (bool) {\r\n        return calculateRunway() > 0;\r\n    }\r\n\r\n    function getPaid() public {\r\n        // TODO: your code here\r\n        var employee = employees[msg.sender];\r\n\t    assert(employee.id != 0x0);\r\n\r\n\t    uint payDate = SafeMath.add(employee.lastPayDate, payDuration);\r\n\t    assert(now > payDate);\r\n\t    \r\n\t    employee.lastPayDate = payDate;\r\n\r\n        assert(address(this).balance >= employee.salary);\r\n\t    employee.id.transfer(employee.salary);    \r\n    }\r\n}\r\n",
  "sourcePath": "/opt/src/lesson-3/contracts/Payroll.sol",
  "compiler": {
    "name": "solc",
    "version": "0.4.24+commit.e67f0147.Emscripten.clang"
  },
  "schemaVersion": "2.0.1",
  "updatedAt": "2018-07-01T02:00:47.104Z"
}